{
  "_format": "hh-sol-artifact-1",
  "contractName": "MessagePortal",
  "sourceName": "contracts/MessagePortal.sol",
  "abi": [
    {
      "inputs": [],
      "stateMutability": "payable",
      "type": "constructor"
    },
    {
      "anonymous": false,
      "inputs": [
        {
          "indexed": true,
          "internalType": "address",
          "name": "from",
          "type": "address"
        },
        {
          "indexed": false,
          "internalType": "uint256",
          "name": "timestamp",
          "type": "uint256"
        },
        {
          "indexed": false,
          "internalType": "string",
          "name": "message",
          "type": "string"
        },
        {
          "indexed": false,
          "internalType": "uint256",
          "name": "luckyNumber",
          "type": "uint256"
        },
        {
          "indexed": false,
          "internalType": "bool",
          "name": "hasWon",
          "type": "bool"
        }
      ],
      "name": "MessageSent",
      "type": "event"
    },
    {
      "inputs": [],
      "name": "getAllMessages",
      "outputs": [
        {
          "components": [
            {
              "internalType": "address",
              "name": "messageSender",
              "type": "address"
            },
            {
              "internalType": "string",
              "name": "message",
              "type": "string"
            },
            {
              "internalType": "uint256",
              "name": "timestamp",
              "type": "uint256"
            },
            {
              "internalType": "uint256",
              "name": "luckyNumber",
              "type": "uint256"
            },
            {
              "internalType": "bool",
              "name": "hasWon",
              "type": "bool"
            }
          ],
          "internalType": "struct MessagePortal.Message[]",
          "name": "",
          "type": "tuple[]"
        }
      ],
      "stateMutability": "view",
      "type": "function"
    },
    {
      "inputs": [],
      "name": "getTotalMessages",
      "outputs": [
        {
          "internalType": "uint256",
          "name": "",
          "type": "uint256"
        }
      ],
      "stateMutability": "view",
      "type": "function"
    },
    {
      "inputs": [
        {
          "internalType": "address",
          "name": "",
          "type": "address"
        }
      ],
      "name": "lastWavedAt",
      "outputs": [
        {
          "internalType": "uint256",
          "name": "",
          "type": "uint256"
        }
      ],
      "stateMutability": "view",
      "type": "function"
    },
    {
      "inputs": [
        {
          "internalType": "string",
          "name": "_message",
          "type": "string"
        }
      ],
      "name": "sendMessage",
      "outputs": [],
      "stateMutability": "nonpayable",
      "type": "function"
    }
  ],
  "bytecode": "0x60806040526000600260006101000a81548160ff0219169083151502179055506200006a6040518060400160405280601981526020017f57652068617665206265656e20636f6e737472756374656421000000000000008152506200009260201b620007e31760201c565b606444426200007a919062000197565b62000086919062000201565b600181905550620002f7565b6200013281604051602401620000a99190620002d3565b6040516020818303038152906040527f41304fac000000000000000000000000000000000000000000000000000000007bffffffffffffffffffffffffffffffffffffffffffffffffffffffff19166020820180517bffffffffffffffffffffffffffffffffffffffffffffffffffffffff83818316178352505050506200013560201b60201c565b50565b60008151905060006a636f6e736f6c652e6c6f679050602083016000808483855afa5050505050565b6000819050919050565b7f4e487b7100000000000000000000000000000000000000000000000000000000600052601160045260246000fd5b6000620001a4826200015e565b9150620001b1836200015e565b9250828201905080821115620001cc57620001cb62000168565b5b92915050565b7f4e487b7100000000000000000000000000000000000000000000000000000000600052601260045260246000fd5b60006200020e826200015e565b91506200021b836200015e565b9250826200022e576200022d620001d2565b5b828206905092915050565b600081519050919050565b600082825260208201905092915050565b60005b838110156200027557808201518184015260208101905062000258565b60008484015250505050565b6000601f19601f8301169050919050565b60006200029f8262000239565b620002ab818562000244565b9350620002bd81856020860162000255565b620002c88162000281565b840191505092915050565b60006020820190508181036000830152620002ef818462000292565b905092915050565b6114c880620003076000396000f3fe608060405234801561001057600080fd5b506004361061004c5760003560e01c8063147e910814610051578063469c81101461006f57806353f5e3801461008b578063a42a4663146100a9575b600080fd5b6100596100d9565b60405161006691906109f6565b60405180910390f35b61008960048036038101906100849190610b6b565b6100e2565b005b610093610655565b6040516100a09190610dd6565b60405180910390f35b6100c360048036038101906100be9190610e24565b6107cb565b6040516100d091906109f6565b60405180910390f35b60008054905090565b42600460003373ffffffffffffffffffffffffffffffffffffffff1673ffffffffffffffffffffffffffffffffffffffff1681526020019081526020016000208190555060016000808282546101389190610e80565b9250508190555061017e6040518060400160405280601681526020017f2573206861732073656e742061206d65737361676521000000000000000000008152503361087c565b6064600154424461018f9190610e80565b6101999190610e80565b6101a39190610ee3565b60018190555060326001541061045e576101f26040518060400160405280600781526020017f257320776f6e21000000000000000000000000000000000000000000000000008152503361087c565b6102336040518060400160405280601581526020017f7468652072616e646f6d206e756d626572207761730000000000000000000000815250600154610918565b6001600260006101000a81548160ff021916908315150217905550600066038d7ea4c6800090504781111561029d576040517f08c379a000000000000000000000000000000000000000000000000000000000815260040161029490610f97565b60405180910390fd5b60003373ffffffffffffffffffffffffffffffffffffffff16826040516102c390610fe8565b60006040518083038185875af1925050503d8060008114610300576040519150601f19603f3d011682016040523d82523d6000602084013e610305565b606091505b5050905080610349576040517f08c379a00000000000000000000000000000000000000000000000000000000081526004016103409061106f565b60405180910390fd5b60036040518060a001604052803373ffffffffffffffffffffffffffffffffffffffff1681526020018581526020014281526020016001548152602001600260009054906101000a900460ff161515815250908060018154018082558091505060019003906000526020600020906005020160009091909190915060008201518160000160006101000a81548173ffffffffffffffffffffffffffffffffffffffff021916908373ffffffffffffffffffffffffffffffffffffffff1602179055506020820151816001019081610420919061129b565b50604082015181600201556060820151816003015560808201518160040160006101000a81548160ff021916908315150217905550505050506105ed565b61049d6040518060400160405280600f81526020017f257320636f756c646e27742077696e00000000000000000000000000000000008152503361087c565b6104de6040518060400160405280601581526020017f7468652072616e646f6d206e756d626572207761730000000000000000000000815250600154610918565b60036040518060a001604052803373ffffffffffffffffffffffffffffffffffffffff1681526020018381526020014281526020016001548152602001600260009054906101000a900460ff161515815250908060018154018082558091505060019003906000526020600020906005020160009091909190915060008201518160000160006101000a81548173ffffffffffffffffffffffffffffffffffffffff021916908373ffffffffffffffffffffffffffffffffffffffff16021790555060208201518160010190816105b5919061129b565b50604082015181600201556060820151816003015560808201518160040160006101000a81548160ff02191690831515021790555050505b3373ffffffffffffffffffffffffffffffffffffffff167f814552d48b129874dc9f545656209ab4c8baa7b68aec56f8b00795509672b01e4283600154600260009054906101000a900460ff1660405161064a94939291906113b5565b60405180910390a250565b60606003805480602002602001604051908101604052809291908181526020016000905b828210156107c257838290600052602060002090600502016040518060a00160405290816000820160009054906101000a900473ffffffffffffffffffffffffffffffffffffffff1673ffffffffffffffffffffffffffffffffffffffff1673ffffffffffffffffffffffffffffffffffffffff168152602001600182018054610702906110be565b80601f016020809104026020016040519081016040528092919081815260200182805461072e906110be565b801561077b5780601f106107505761010080835404028352916020019161077b565b820191906000526020600020905b81548152906001019060200180831161075e57829003601f168201915b5050505050815260200160028201548152602001600382015481526020016004820160009054906101000a900460ff16151515158152505081526020019060010190610679565b50505050905090565b60046020528060005260406000206000915090505481565b610879816040516024016107f79190611401565b6040516020818303038152906040527f41304fac000000000000000000000000000000000000000000000000000000007bffffffffffffffffffffffffffffffffffffffffffffffffffffffff19166020820180517bffffffffffffffffffffffffffffffffffffffffffffffffffffffff83818316178352505050506109b4565b50565b6109148282604051602401610892929190611432565b6040516020818303038152906040527f319af333000000000000000000000000000000000000000000000000000000007bffffffffffffffffffffffffffffffffffffffffffffffffffffffff19166020820180517bffffffffffffffffffffffffffffffffffffffffffffffffffffffff83818316178352505050506109b4565b5050565b6109b0828260405160240161092e929190611462565b6040516020818303038152906040527fb60e72cc000000000000000000000000000000000000000000000000000000007bffffffffffffffffffffffffffffffffffffffffffffffffffffffff19166020820180517bffffffffffffffffffffffffffffffffffffffffffffffffffffffff83818316178352505050506109b4565b5050565b60008151905060006a636f6e736f6c652e6c6f679050602083016000808483855afa5050505050565b6000819050919050565b6109f0816109dd565b82525050565b6000602082019050610a0b60008301846109e7565b92915050565b6000604051905090565b600080fd5b600080fd5b600080fd5b600080fd5b6000601f19601f8301169050919050565b7f4e487b7100000000000000000000000000000000000000000000000000000000600052604160045260246000fd5b610a7882610a2f565b810181811067ffffffffffffffff82111715610a9757610a96610a40565b5b80604052505050565b6000610aaa610a11565b9050610ab68282610a6f565b919050565b600067ffffffffffffffff821115610ad657610ad5610a40565b5b610adf82610a2f565b9050602081019050919050565b82818337600083830152505050565b6000610b0e610b0984610abb565b610aa0565b905082815260208101848484011115610b2a57610b29610a2a565b5b610b35848285610aec565b509392505050565b600082601f830112610b5257610b51610a25565b5b8135610b62848260208601610afb565b91505092915050565b600060208284031215610b8157610b80610a1b565b5b600082013567ffffffffffffffff811115610b9f57610b9e610a20565b5b610bab84828501610b3d565b91505092915050565b600081519050919050565b600082825260208201905092915050565b6000819050602082019050919050565b600073ffffffffffffffffffffffffffffffffffffffff82169050919050565b6000610c0b82610be0565b9050919050565b610c1b81610c00565b82525050565b600081519050919050565b600082825260208201905092915050565b60005b83811015610c5b578082015181840152602081019050610c40565b60008484015250505050565b6000610c7282610c21565b610c7c8185610c2c565b9350610c8c818560208601610c3d565b610c9581610a2f565b840191505092915050565b610ca9816109dd565b82525050565b60008115159050919050565b610cc481610caf565b82525050565b600060a083016000830151610ce26000860182610c12565b5060208301518482036020860152610cfa8282610c67565b9150506040830151610d0f6040860182610ca0565b506060830151610d226060860182610ca0565b506080830151610d356080860182610cbb565b508091505092915050565b6000610d4c8383610cca565b905092915050565b6000602082019050919050565b6000610d6c82610bb4565b610d768185610bbf565b935083602082028501610d8885610bd0565b8060005b85811015610dc45784840389528151610da58582610d40565b9450610db083610d54565b925060208a01995050600181019050610d8c565b50829750879550505050505092915050565b60006020820190508181036000830152610df08184610d61565b905092915050565b610e0181610c00565b8114610e0c57600080fd5b50565b600081359050610e1e81610df8565b92915050565b600060208284031215610e3a57610e39610a1b565b5b6000610e4884828501610e0f565b91505092915050565b7f4e487b7100000000000000000000000000000000000000000000000000000000600052601160045260246000fd5b6000610e8b826109dd565b9150610e96836109dd565b9250828201905080821115610eae57610ead610e51565b5b92915050565b7f4e487b7100000000000000000000000000000000000000000000000000000000600052601260045260246000fd5b6000610eee826109dd565b9150610ef9836109dd565b925082610f0957610f08610eb4565b5b828206905092915050565b600082825260208201905092915050565b7f547279696e6720746f207769746864726177206d6f7265206d6f6e657920746860008201527f616e207468657920636f6e7472616374206861732e0000000000000000000000602082015250565b6000610f81603583610f14565b9150610f8c82610f25565b604082019050919050565b60006020820190508181036000830152610fb081610f74565b9050919050565b600081905092915050565b50565b6000610fd2600083610fb7565b9150610fdd82610fc2565b600082019050919050565b6000610ff382610fc5565b9150819050919050565b7f4661696c656420746f207769746864726177206d6f6e65792066726f6d20636f60008201527f6e74726163742e00000000000000000000000000000000000000000000000000602082015250565b6000611059602783610f14565b915061106482610ffd565b604082019050919050565b600060208201905081810360008301526110888161104c565b9050919050565b7f4e487b7100000000000000000000000000000000000000000000000000000000600052602260045260246000fd5b600060028204905060018216806110d657607f821691505b6020821081036110e9576110e861108f565b5b50919050565b60008190508160005260206000209050919050565b60006020601f8301049050919050565b600082821b905092915050565b6000600883026111517fffffffffffffffffffffffffffffffffffffffffffffffffffffffffffffffff82611114565b61115b8683611114565b95508019841693508086168417925050509392505050565b6000819050919050565b600061119861119361118e846109dd565b611173565b6109dd565b9050919050565b6000819050919050565b6111b28361117d565b6111c66111be8261119f565b848454611121565b825550505050565b600090565b6111db6111ce565b6111e68184846111a9565b505050565b5b8181101561120a576111ff6000826111d3565b6001810190506111ec565b5050565b601f82111561124f57611220816110ef565b61122984611104565b81016020851015611238578190505b61124c61124485611104565b8301826111eb565b50505b505050565b600082821c905092915050565b600061127260001984600802611254565b1980831691505092915050565b600061128b8383611261565b9150826002028217905092915050565b6112a482610c21565b67ffffffffffffffff8111156112bd576112bc610a40565b5b6112c782546110be565b6112d282828561120e565b600060209050601f83116001811461130557600084156112f3578287015190505b6112fd858261127f565b865550611365565b601f198416611313866110ef565b60005b8281101561133b57848901518255600182019150602085019450602081019050611316565b868310156113585784890151611354601f891682611261565b8355505b6001600288020188555050505b505050505050565b600061137882610c21565b6113828185610f14565b9350611392818560208601610c3d565b61139b81610a2f565b840191505092915050565b6113af81610caf565b82525050565b60006080820190506113ca60008301876109e7565b81810360208301526113dc818661136d565b90506113eb60408301856109e7565b6113f860608301846113a6565b95945050505050565b6000602082019050818103600083015261141b818461136d565b905092915050565b61142c81610c00565b82525050565b6000604082019050818103600083015261144c818561136d565b905061145b6020830184611423565b9392505050565b6000604082019050818103600083015261147c818561136d565b905061148b60208301846109e7565b939250505056fea26469706673582212201dfe725fdd060df05c01c55690c6a3d5de4c20c4f5c0858425b95e8c31f0167e64736f6c63430008110033",
  "linkReferences": {},
  "deployedLinkReferences": {}
}